:100000000C945D000C9485000C9485000C94850084
:100010000C9485000C9485000C9485000C9485004C
:100020000C9485000C9485000C9485000C9485003C
:100030000C9485000C9485000C9485000C9485002C
:100040000C943E070C9485000C94AE070C94880722
:100050000C9485000C9485000C9485000C9485000C
:100060000C94E0070C948500000000002400270099
:100070002A0000000000250028002B0004040404CE
:100080000404040402020202020203030303030342
:10009000010204081020408001020408102001021F
:1000A00004081020000000080002010000030407FB
:1000B0000000000000000000FF0811241FBECFEF69
:1000C000D8E0DEBFCDBF11E0A0E0B1E0E0E0FAE1B2
:1000D00002C005900D92A03BB107D9F723E0A0EB39
:1000E000B1E001C01D92A633B207E1F710E0CDE503
:1000F000D0E004C02197FE010E94D30BCC35D1077C
:10010000C9F70E9441090C94FE0C0C94000008955C
:10011000089590E0FC01EC55FF4F2491FC01E0575D
:10012000FF4F3491FC01E458FF4FE491EE23C9F0F6
:10013000222339F0233001F1A8F4213019F12230C3
:1001400029F1F0E0EE0FFF1FEE58FF4FA591B4919B
:100150008FB7F894EC91611126C030953E233C9303
:100160008FBF08952730A9F02830C9F0243049F70F
:10017000809180008F7D03C0809180008F77809375
:100180008000DFCF84B58F7784BDDBCF84B58F7DD2
:10019000FBCF8091B0008F778093B000D2CF809159
:1001A000B0008F7DF9CF3E2BDACF3FB7F894809126
:1001B000090290910A02A0910B02B0910C0226B59F
:1001C000A89B05C02F3F19F00196A11DB11D3FBF8F
:1001D000BA2FA92F982F8827BC01CD01620F711D5E
:1001E000811D911D42E0660F771F881F991F4A9558
:1001F000D1F708958F929F92AF92BF92CF92DF92E4
:10020000EF92FF924B015C010E94D5006B017C01D3
:100210000E94D5006C197D098E099F09683E7340C4
:1002200081059105A8F321E0821A9108A108B1087F
:1002300088EEC80E83E0D81EE11CF11C81149104E5
:10024000A104B10429F7FF90EF90DF90CF90BF9009
:10025000AF909F908F900895AF92BF92CF92DF9210
:10026000EF92FF920F931F93CF93DF936C017B016B
:100270008B01040F151FEB015E01AE18BF08C017FC
:10028000D10759F06991D601ED91FC910190F0816F
:10029000E02DC6010995892B79F7C501DF91CF9132
:1002A0001F910F91FF90EF90DF90CF90BF90AF9094
:1002B0000895FC01538D448D252F30E0842F90E06C
:1002C000821B930B541710F0CF9608950197089551
:1002D000FC01918D828D981761F0A28DAE0FBF2F1A
:1002E000B11D5D968C91928D9F5F9F73928F90E070
:1002F00008958FEF9FEF0895FC01918D828D9817DF
:1003000031F0828DE80FF11D858D90E008958FEF1B
:100310009FEF0895FC01918D228D892F90E0805CE4
:100320009F4F821B91098F739927089583E892E06C
:100330000E948A0121E0892B09F420E0822F089590
:1003400080E090E0892B29F00E94960181110C94A5
:1003500000000895FC01A48DA80FB92FB11DA35A68
:10036000BF4F2C91848D90E001968F739927848FD5
:10037000A689B7892C93A089B1898C9183708064F8
:100380008C93938D848D981306C00288F389E02D99
:1003900080818F7D80830895EF92FF920F931F934A
:1003A000CF93DF93EC0181E0888F9B8D8C8D981328
:1003B0001AC0E889F989808185FF15C09FB7F89434
:1003C000EE89FF896083E889F98980818370806480
:1003D00080839FBF81E090E0DF91CF911F910F91CB
:1003E000FF90EF900895F62E0B8D10E00F5F1F4FDA
:1003F0000F731127E02E8C8D8E110CC00FB607FCE9
:10040000FACFE889F989808185FFF5CFCE010E9476
:10041000AA01F1CFEB8DEC0FFD2FF11DE35AFF4F39
:10042000F0829FB7F8940B8FEA89FB898081806204
:10043000CFCFCF93DF93EC01888D8823B9F0AA89C1
:10044000BB89E889F9898C9185FD03C0808186FD8F
:100450000DC00FB607FCF7CF8C9185FFF2CF8081DE
:1004600085FFEDCFCE010E94AA01E9CFDF91CF91A8
:1004700008952091D101260F3327331F21323105F2
:10048000ECF420915902FC0190E080E0243069F006
:1004900082E00895A091D1012191AC014F545E4FAB
:1004A000A40FB52FB11D2C930196861798F3809158
:1004B000D101680F6093D10180E0089581E0089533
:1004C0001092590281E0809358021092330261E049
:1004D00082E10E94890061E083E10E948900E9EBEA
:1004E000F0E080818E7F808380818D7F808388E4AF
:1004F0008093B80085E48093BC000895CF93DF9388
:1005000091E09093B0018823B9F0C091B800D091E8
:10051000BA008091BC008A7B8093BC0060E082E1DD
:100520000E94890060E083E10E9489000E946002CD
:10053000D093BA00C093B800DF91CF9108958F9205
:100540009F92AF92BF92CF92DF92EF92FF920F9362
:100550001F93CF93DF93D0918202D13208F0D7C09E
:10056000182FC09181020E94D5006B017C018091FF
:10057000590281116BC082E0809359021093580296
:100580008FEF8093570210925602D0935502A1E646
:10059000B2E0E5E3F2E080E0D81391C010923402BB
:1005A00080913402CC0FC82BC09334028091330267
:1005B000813009F088C0109233020E94D5006B018F
:1005C0007C01809134028093BB0080915B0290910A
:1005D0005C02A0915D02B0915E02892B8A2B8B2B6D
:1005E000A1F00E94D50000915B0210915C02209165
:1005F0005D0230915E026C197D098E099F09061714
:1006000017072807390708F442C08091BC0083FD12
:10061000D8CF85EC8093BC000E94D5006B017C0193
:1006200080915902823009F450C0809157028F3F67
:1006300009F46FC080915702803209F46CC0809138
:100640005702803309F469C084E026C080915B02C0
:1006500090915C02A0915D02B0915E02892B8A2B81
:100660008B2B09F484CF0E94D50080905B02909080
:100670005C02A0905D02B0905E026C197D098E094B
:100680009F0986169706A806B90608F070CF8091D4
:100690005A020E947E0285E010926002109282024D
:1006A00010925F02DF91CF911F910F91FF90EF9019
:1006B000DF90CF90BF90AF909F908F9008959D91C5
:1006C00091938F5F69CF85EEA5CF80915B0290916A
:1006D0005C02A0915D02B0915E02892B8A2B8B2B6C
:1006E00009F49ECF0E94D50000915B0210915C023C
:1006F00020915D0230915E026C197D098E099F097F
:10070000061717072807390708F08ACFC0CF81E0FE
:10071000C3CF80E0C1CF82E0BFCF83E0BDCF1F93C6
:10072000CF93DF93EA01122FDC0111968D919C91FA
:10073000DC01ED91FC910280F381E02D0995C81751
:10074000D90729F4812F0E949F0291E0811190E046
:10075000892FDF91CF911F910895CF93DF93EC0103
:100760008B818823A1F0888191E090935F02809330
:100770008102109260021092820281E00E949F0228
:1007800091E0811190E0892FDF91CF91089510922F
:1007900012021092110210926002109282020E94C4
:1007A000600287E890E09093100280930F0288E83F
:1007B00090E090930E0280930D0281E08B83CE0136
:1007C0000E94AD03982F8111CECFDDCF0895E09127
:1007D000120280911102E81730F4F0E0ED5EFD4F57
:1007E000808190E008958FEF9FEF0895909112021D
:1007F000809111022FEF3FEF981748F4E92FF0E0B6
:10080000ED5EFD4F208130E09F5F90931202C901A1
:1008100008958091110290911202891B990B0895FD
:10082000CF92DF92EF92FF920F931F93CF93DF93BC
:100830007C01CB018A0120915F02222389F0EB0128
:100840006B01C40ED51ECC15DD0569F06991D70189
:10085000ED91FC910190F081E02DC7010995F3CF56
:10086000642F0E943902C801DF91CF911F910F912F
:10087000FF90EF90DF90CF900895CF93DF931F927A
:10088000CDB7DEB7698320915F022223F9F0209172
:100890008202203258F021E030E0FC0133832283D1
:1008A00090E080E00F90DF91CF91089580916002F9
:1008B000E82FF0E0EF59FD4F998190838F5F80938F
:1008C00060028093820281E090E0ECCF61E0CE0193
:1008D00001960E943902F7CF90E080E00895FC0174
:1008E00001900020E9F73197AF01481B590BBC017B
:1008F00083E892E00C942C018F929F92AF92BF926A
:100900000F931F93CF93DF93CDB7DEB7A1970FB6A9
:10091000F894DEBF0FBECDBF19A2423008F44AE002
:100920008E010F5D1F4F842E912CB12CA12CA5019F
:1009300094010E948E0BE62FB901CA01EA30F4F44B
:10094000E05DD801EE938D01232B242B252B79F725
:1009500090E080E0109719F0CD010E946F04A196FD
:100960000FB6F894DEBF0FBECDBFDF91CF911F91C0
:100970000F91BF90AF909F908F900895E95CE1CF69
:10098000CF93DF930E946F04EC018CE291E00E9410
:100990006F048C0F9D1FDF91CF910895CF93DF934C
:1009A00000D0CDB7DEB7806889834A8380912C035D
:1009B00090912D03FC01248135812230310590F086
:1009C000208131E030935F02209381021092600217
:1009D0001092820221E042E050E0BE016F5F7F4F43
:1009E0000E948F030F900F90DF91CF9108952F9267
:1009F0003F924F925F926F927F928F929F92AF92AF
:100A0000BF92CF92DF92EF92FF920F931F93CF93FB
:100A1000DF93DC011496ED91FC911597EF2B09F40F
:100A200025C169012A01EC01888191E090935F0260
:100A300080938102109260021092820220E041E0D5
:100A400050E0CD010E948F03782E882309F40EC157
:100A5000F12CE12C332433948C819D8186010E1975
:100A60001F098017910708F48C0128800E94D50087
:100A70004B015C0180915902811173C0602EB0E27C
:100A8000B01710F480E2682E3092590221E0C601BE
:100A9000801B910BE816F90608F420E02093580219
:100AA000EFEFE0935702109256028FEF860D80937E
:100AB00055023092340280913402220C282A20926E
:100AC000340280913302813009F090C010923302D9
:100AD0000E94D5004B015C01809134028093BB00E1
:100AE00080915B0290915C02A0915D02B0915E02E8
:100AF000892B8A2B8B2BA1F00E94D50020915B02C1
:100B000030915C0240915D0250915E026819790952
:100B10008A099B09261737074807590708F442C076
:100B20008091BC0083FDD8CFF5ECF093BC000E940F
:100B3000D5004B015C0180915902813009F45AC003
:100B400080915602861510F460905602A5E3B2E03B
:100B5000E3E1F2E080E0861551F19D9191938F5F82
:100B6000FACF80915B0290915C02A0915D02B091FE
:100B70005E02892B8A2B8B2B09F47CCF0E94D50037
:100B800020915B0230915C0240915D0250915E02C7
:100B9000681979098A099B092617370748075907F1
:100BA00008F068CF80915A020E947E02612C109258
:100BB0001202609211026016110609F057C042013C
:100BC0008E0C9F1C5401C501881999098017910743
:100BD00098F589819A81DC01ED91FC910284F3857D
:100BE000E02D0995F50181935F01EDCF85EE8093AE
:100BF000BC009DCF80915B0290915C02A0915D0250
:100C0000B0915E02892B8A2B8B2B09F494CF0E9422
:100C1000D50020915B0230915C0240915D025091C1
:100C20005E02681979098A099B0926173707480760
:100C3000590708F080CFB6CFE00EF11EEC14FD048A
:100C400008F40ACF872DDF91CF911F910F91FF906C
:100C5000EF90DF90CF90BF90AF909F908F907F905C
:100C60006F905F904F903F902F900895712CEACF36
:100C7000CF93DF9300D0CDB7DEB71A821982806898
:100C8000898322E030E0AE014F5F5F4FBA0180916F
:100C90002C0390912D030E94F70489819A810F9073
:100CA0000F90DF91CF910895EF92FF920F931F93D2
:100CB000CF93DF931F92CDB7DEB780912C03909135
:100CC0002D03009711F00E94750C86E090E00E94C1
:100CD000D90B8C0189E2F801808380E293E0928352
:100CE0008183138280E290E09583848310932D03A7
:100CF00000932C03109212021092110210926002C3
:100D0000109282020E94600287E890E090931002A5
:100D100080930F0288E890E090930E0280930D027A
:100D200081E0F8018383C8010E94AD03182F81116F
:100D30000AC010E0812F0F90DF91CF911F910F918A
:100D4000FF90EF90089582E9898321E030E0AE01C1
:100D50004F5F5F4FBA0180912C0390912D030E9449
:100D6000F70489818D3421F0843411F0803109F742
:100D700081E080932E0300913103402F50E070E01A
:100D800060E00E94CE0400933103E0902F03F090C6
:100D9000300380912E03811102C00E945406A701E6
:100DA00070E060E08FE00E94CE04F0923003E092A9
:100DB0002F0341E050E060E070E080E00E94CE044C
:100DC00063E070E080E090E00E94FA0043E050E0D1
:100DD00060E070E080E00E94CE048091310320E06A
:100DE00031E0281B31094CE0429FC001439F900D28
:100DF000112465E070E00E947A0B6F5F7F4F072E31
:100E0000000C880B990B0E94FA0094CF85ED80931B
:100E1000BC0080915B0290915C02A0915D02B09158
:100E20005E020796A11DB11D23E0B695A795979583
:100E300087952A95D1F72091BC0024FD03C010921C
:100E40005902089540915B0250915C0260915D02ED
:100E500070915E02452B462B472B69F30097A10545
:100E6000B10541F025E32A95F1F700000197A109AA
:100E7000B109E1CF80915A020C947E021F920F9229
:100E80000FB60F9211242F933F938F939F93AF939D
:100E9000BF938091050290910602A0910702B09144
:100EA00008023091040223E0230F2D3758F50196F4
:100EB000A11DB11D209304028093050290930602A8
:100EC000A0930702B09308028091090290910A0250
:100ED000A0910B02B0910C020196A11DB11D80934F
:100EE000090290930A02A0930B02B0930C02BF91E7
:100EF000AF919F918F913F912F910F900FBE0F90C7
:100F00001F90189526E8230F0296A11DB11DD2CF80
:100F10001F920F920FB60F9211242F933F934F936E
:100F20005F936F937F938F939F93AF93BF93EF9351
:100F3000FF9383E892E00E94AA01FF91EF91BF9195
:100F4000AF919F918F917F916F915F914F913F9161
:100F50002F910F900FBE0F901F9018951F920F9218
:100F60000FB60F9211242F938F939F93EF93FF93BC
:100F7000E0919302F09194028081E0919902F091C6
:100F80009A0282FD1BC0908180919C028F5F8F73BB
:100F900020919D02821741F0E0919C02F0E0ED5714
:100FA000FD4F958F80939C02FF91EF919F918F91C0
:100FB0002F910F900FBE0F901F9018958081F4CF46
:100FC0001F920F920FB60F9211242F933F934F93BE
:100FD0005F936F937F938F939F93AF93BF93EF93A1
:100FE000FF938091B900887F803609F44AC0F0F5FC
:100FF000883209F4A7C018F5803109F49BC0B8F411
:10100000882309F4F9C0883009F494C0FF91EF9166
:10101000BF91AF919F918F917F916F915F914F9110
:101020003F912F910F900FBE0F901F901895883110
:1010300009F488C0803251F78093570214C080347D
:1010400009F49DC040F48033B9F38833F9F68093F6
:10105000570285ECB0C0803509F485C0883509F4A5
:1010600096C0883499F60E940607D0CF883909F4D3
:101070008CC038F5883729F050F4883611F0803765
:1010800029F683E0809359021092F30157C0883803
:1010900009F47BC0803919F0803809F0B7CF80910E
:1010A000F301803208F071C0E091F30181E08E0F0E
:1010B0008093F3018091BB00F0E0ED52FE4F8083FE
:1010C0003DC0803B39F0E0F4803A09F479C0883AB9
:1010D00009F09CCF84E0809359021092D2011092C3
:1010E000D101E0910F02F091100209958091D10198
:1010F00081110FC081E08093D1011092B10109C02C
:10110000803C09F4A6CF883C09F4A3CF883B09F0C2
:101110007DCFE091D20181E08E0F8093D201F0E08B
:10112000EF54FE4F80818093BB009091D20180915B
:10113000D10129C0809134028093BB0085EC80935B
:10114000BC0064CF9091560280915502981758F5D3
:10115000E091560281E08E0F80935602F0E0EB5C46
:10116000FD4F8081E9CFE091560281E08E0F8093A0
:1011700056028091BB00F0E0EB5CFD4F80839091C4
:101180005602809155029817C8F285E8D8CFE091B1
:10119000560281E08E0F809356028091BB00F0E0F2
:1011A000EB5CFD4F80838091580281115CCF81E020
:1011B0008093330284EA8093BC001092590226CFB8
:1011C00085EC8093BC00109259028091F30180322B
:1011D00030F4E091F301F0E0ED52FE4F10826091A7
:1011E000F30170E0E0910D02F0910E0283ED91E0C9
:1011F00009951092F3010ACF1092570234CFE3E819
:10120000F2E01382128288EE93E0A0E0B0E08483E3
:101210009583A683B7832CE031E03183208325ECCE
:1012200030E03587248724EC30E03787268720ECB0
:1012300030E0318B208B21EC30E0338B228B22ECA1
:1012400030E0358B248B26EC30E0378B268B118EEB
:10125000128E138E148EE0E2F3E0138212828483E6
:101260009583A683B7838EE191E091838083ECE23E
:10127000F3E011821082128286EF8583148213823A
:101280000895789484B5826084BD84B5816084BDFE
:1012900085B5826085BD85B5816085BD80916E0014
:1012A000816080936E001092810080918100826045
:1012B0008093810080918100816080938100809182
:1012C00080008160809380008091B1008460809371
:1012D000B1008091B00081608093B00080917A006D
:1012E000846080937A0080917A00826080937A0093
:1012F00080917A00816080937A0080917A00806882
:1013000080937A001092C100E0919302F0919402D0
:1013100082E08083E0918F02F09190021082E09150
:101320009102F09192028FEC808310929B02E091E7
:101330009702F091980286E08083E0919502F09107
:101340009602808180618083E0919502F0919602FF
:10135000808188608083E0919502F091960280817F
:1013600080688083E0919502F091960280818F7D64
:101370008083EDE9F0E02491E9E8F0E084918823AE
:1013800099F090E0880F991FFC01E859FF4FA59153
:10139000B491FC01EE58FF4F859194918FB7F8946A
:1013A000EC91E22BEC938FBF0E945406882309F442
:1013B000DDC08FE291E00E94C00455E0252E312C63
:1013C00064E1462E512C612C712CC0E0D0E080915C
:1013D0002E03811102C00E94540684E10E94380647
:1013E0004C0186E10E9438066C0188E10E943806B3
:1013F0008C018AE10E9438067C018091310320E053
:1014000031E0281B31094CE0429FC001439F900D01
:101410001124B1010E947A0B6F5F7F4F072E000CE1
:10142000880B990B0E94FA0081149104D9F18091E4
:10143000310320E031E0281B3109C9012034310596
:101440000CF099C0982F8827990F990F9C01369519
:10145000279536952795821B930B8816990608F0D9
:1014600090C00C0D1D1D0E0D1F1D8016910608F05D
:1014700085C008191909169507954601801A910A21
:1014800089F09701201B310BA2EEBEE00E94B00B49
:10149000940150E040E00E948E0B490181E9881AD6
:1014A0008AEF980A89E691E00E946F04B12CA12C82
:1014B0004AE0C501B4010E947C0486E791E00E94E5
:1014C0006F048AE791E00E94C0048091000190912E
:1014D0000101892B09F458C080910002909101020A
:1014E000A0910202B0910302880E991EAA1EBB1E93
:1014F0008092000290920102A0920202B092030236
:101500008091FC019091FD01A091FE01B091FF013D
:101510008C0D9D1DA11DB11D8093FC019093FD01BB
:10152000A093FE01B093FF0164EF71E080E090E0D2
:101530000E94FA008CE791E00E946F048AE791E034
:101540000E946F0480910001909101010197909396
:10155000010180930001209709F439CF0E94960180
:10156000882309F434CF0E94000031CF8CE391E04E
:101570000E94C004FFCF8FEF9FEF6FCF10E000E01D
:101580007CCF912C812C8ECF8091F8019091F90124
:10159000A091FA01B091FB01892B8A2B8B2B09F0CA
:1015A0004EC0609100027091010280910202909100
:1015B0000302A30192010E948E0B2093F801309345
:1015C000F9014093FA015093FB016091FC01709185
:1015D000FD018091FE019091FF01A30192010E9403
:1015E0008E0B2093F4013093F5014093F601509354
:1015F000F7018CE891E00E946F046091F80170910E
:10160000F9018091FA019091FB014AE00E947C046B
:101610008AE791E00E94C00484E991E00E946F048F
:101620006091F4017091F5018091F6019091F701BC
:101630004AE00E947C048AE791E00E94C004C090C6
:10164000F801D090F901E090FA01F090FB01C81484
:10165000D904EA04FB0409F449C0C818D908EA0807
:10166000FB0821EAC21626E8D20621E0E206F104D0
:101670001CF0C12CD12C76018CE991E00E946F0402
:101680004AE0C701B601F7FE0DC06DE283E892E0C3
:101690000E94CC0166277727CB016C197D098E0942
:1016A0009F094AE00E947C048AE791E00E94C004FE
:1016B00039ECC316D104E104F10408F44CCF85EAF7
:1016C00091E00E946F048AE791E00E94C00461E00B
:1016D0008DE00E94890068EE73E080E090E00E9457
:1016E000FA0060E08DE00E94890035CFC12CD12C3A
:1016F0007601B7CF97FB072E16F4009407D077FD3D
:1017000009D00E94BF0B07FC05D03EF4909581954F
:101710009F4F0895709561957F4F0895A1E21A2E0D
:10172000AA1BBB1BFD010DC0AA1FBB1FEE1FFF1F85
:10173000A217B307E407F50720F0A21BB30BE40BD5
:10174000F50B661F771F881F991F1A9469F760951C
:101750007095809590959B01AC01BD01CF010895D6
:10176000A29FB001B39FC001A39F700D811D1124E2
:10177000911DB29F700D811D1124911D0895AA1B0A
:10178000BB1B51E107C0AA1FBB1FA617B70710F06C
:10179000A61BB70B881F991F5A95A9F7809590959E
:1017A000BC01CD010895EE0FFF1F0590F491E02DCF
:1017B00009940F931F93CF93DF938230910510F418
:1017C00082E090E0E0913403F091350330E020E0D6
:1017D000B0E0A0E0309799F42115310509F44AC032
:1017E000281B390B24303105D8F58A819B8161157E
:1017F000710589F1FB0193838283FE0111C0408151
:1018000051810281138148175907E0F048175907A1
:1018100099F4109761F012960C93129713961C93FB
:101820003296CF01DF91CF911F910F9108950093D0
:10183000340310933503F4CF2115310551F04217CD
:10184000530738F0A901DB019A01BD01DF01F8015E
:10185000C1CFEF01F9CF9093350380933403CDCFFF
:10186000FE01E20FF31F81939193225031093983D6
:101870002883D7CF2091320330913303232B41F4B7
:1018800020910401309105013093330320933203FA
:1018900020910201309103012115310541F42DB74A
:1018A0003EB74091060150910701241B350BE09192
:1018B0003203F0913303E217F307A0F42E1B3F0B22
:1018C0002817390778F0AC014E5F5F4F24173507B2
:1018D00048F04E0F5F1F50933303409332038193C0
:1018E00091939FCFF0E0E0E09CCFCF93DF93009700
:1018F000E9F0FC01329713821282A0913403B09177
:101900003503ED0130E020E01097A1F42081318112
:10191000820F931F20913203309133032817390728
:1019200009F061C0F0933303E0933203DF91CF916C
:101930000895EA01CE17DF07E8F54A815B819E0131
:1019400041155105B1F7E901FB83EA8349915991AA
:10195000C40FD51FEC17FD0761F4808191810296B9
:10196000840F951FE90199838883828193819B83EA
:101970008A83F0E0E0E012968D919C911397009796
:10198000B9F52D913C911197CD010296820F931FCD
:1019900020913203309133032817390739F63097F5
:1019A00051F51092350310923403B0933303A09392
:1019B0003203BCCFD383C28340815181840F951FF2
:1019C000C817D90761F44E5F5F4F88819981480F2E
:1019D000591F518340838A819B8193838283211580
:1019E000310509F0B0CFF0933503E09334039ECF77
:1019F000FD01DC01C0CF13821282D7CFF894FFCF54
:101A0000140000003603800000000000CC012C010F
:101A1000590119028A0168017C01000000003D049F
:101A200010046C04E6030904F603E7030D0A0046FC
:101A30006F756E642073656E736F72004E6F205405
:101A40004353333437323520666F756E64202E2E43
:101A50002E20636865636B20796F757220636F6EEB
:101A60006E656374696F6E7300436F6C6F722054A0
:101A7000656D703A2000204B202D200043616C6979
:101A800062726174696E672E2E2E200041564720C7
:101A90004B3A200041564720523A200044494646DE
:101AA000204B3A2000464C415348204C454400000E
:00000001FF
