:100000000C945D000C9485000C9485000C94850084
:100010000C9485000C9485000C9485000C9485004C
:100020000C9485000C9485000C9485000C9485003C
:100030000C9485000C9485000C9485000C9485002C
:100040000C9440070C9485000C94B0070C948A071C
:100050000C9485000C9485000C9485000C9485000C
:100060000C94E2070C948500000000002400270097
:100070002A0000000000250028002B0004040404CE
:100080000404040402020202020203030303030342
:10009000010204081020408001020408102001021F
:1000A00004081020000000080002010000030407FB
:1000B0000000000000000000010911241FBECFEF66
:1000C000D8E0DEBFCDBF11E0A0E0B1E0E4E2FAE1AC
:1000D00002C005900D92AA3BB107D9F723E0AAEB25
:1000E000B1E001C01D92A034B207E1F710E0CDE508
:1000F000D0E004C02197FE010E94E50BCC35D1076A
:10010000C9F70E9445090C94100D0C940000089545
:10011000089590E0FC01EC55FF4F2491FC01E0575D
:10012000FF4F3491FC01E458FF4FE491EE23C9F0F6
:10013000222339F0233001F1A8F4213019F12230C3
:1001400029F1F0E0EE0FFF1FEE58FF4FA591B4919B
:100150008FB7F894EC91611126C030953E233C9303
:100160008FBF08952730A9F02830C9F0243049F70F
:10017000809180008F7D03C0809180008F77809375
:100180008000DFCF84B58F7784BDDBCF84B58F7DD2
:10019000FBCF8091B0008F778093B000D2CF809159
:1001A000B0008F7DF9CF3E2BDACF3FB7F894809126
:1001B000130290911402A0911502B091160226B577
:1001C000A89B05C02F3F19F00196A11DB11D3FBF8F
:1001D000BA2FA92F982F8827BC01CD01620F711D5E
:1001E000811D911D42E0660F771F881F991F4A9558
:1001F000D1F708958F929F92AF92BF92CF92DF92E4
:10020000EF92FF924B015C010E94D5006B017C01D3
:100210000E94D5006C197D098E099F09683E7340C4
:1002200081059105A8F321E0821A9108A108B1087F
:1002300088EEC80E83E0D81EE11CF11C81149104E5
:10024000A104B10429F7FF90EF90DF90CF90BF9009
:10025000AF909F908F900895AF92BF92CF92DF9210
:10026000EF92FF920F931F93CF93DF936C017B016B
:100270008B01040F151FEB015E01AE18BF08C017FC
:10028000D10759F06991D601ED91FC910190F0816F
:10029000E02DC6010995892B79F7C501DF91CF9132
:1002A0001F910F91FF90EF90DF90CF90BF90AF9094
:1002B0000895FC01538D448D252F30E0842F90E06C
:1002C000821B930B541710F0CF9608950197089551
:1002D000FC01918D828D981761F0A28DAE0FBF2F1A
:1002E000B11D5D968C91928D9F5F9F73928F90E070
:1002F00008958FEF9FEF0895FC01918D828D9817DF
:1003000031F0828DE80FF11D858D90E008958FEF1B
:100310009FEF0895FC01918D228D892F90E0805CE4
:100320009F4F821B91098F73992708958DE892E062
:100330000E948A0121E0892B09F420E0822F089590
:1003400080E090E0892B29F00E94960181110C94A5
:1003500000000895FC01A48DA80FB92FB11DA35A68
:10036000BF4F2C91848D90E001968F739927848FD5
:10037000A689B7892C93A089B1898C9183708064F8
:100380008C93938D848D981306C00288F389E02D99
:1003900080818F7D80830895EF92FF920F931F934A
:1003A000CF93DF93EC0181E0888F9B8D8C8D981328
:1003B0001AC0E889F989808185FF15C09FB7F89434
:1003C000EE89FF896083E889F98980818370806480
:1003D00080839FBF81E090E0DF91CF911F910F91CB
:1003E000FF90EF900895F62E0B8D10E00F5F1F4FDA
:1003F0000F731127E02E8C8D8E110CC00FB607FCE9
:10040000FACFE889F989808185FFF5CFCE010E9476
:10041000AA01F1CFEB8DEC0FFD2FF11DE35AFF4F39
:10042000F0829FB7F8940B8FEA89FB898081806204
:10043000CFCFCF93DF93EC01888D8823B9F0AA89C1
:10044000BB89E889F9898C9185FD03C0808186FD8F
:100450000DC00FB607FCF7CF8C9185FFF2CF8081DE
:1004600085FFEDCFCE010E94AA01E9CFDF91CF91A8
:1004700008952091DB01260F3327331F21323105E8
:10048000ECF420916302FC0190E080E0243069F0FC
:1004900082E00895A091DB012191AC0145545E4FAB
:1004A000A40FB52FB11D2C930196861798F3809158
:1004B000DB01680F6093DB0180E0089581E008951F
:1004C0001092630281E08093620210923D0261E02B
:1004D00082E10E94890061E083E10E948900E9EBEA
:1004E000F0E080818E7F808380818D7F808388E4AF
:1004F0008093B80085E48093BC000895CF93DF9388
:1005000091E09093BA018823B9F0C091B800D091DE
:10051000BA008091BC008A7B8093BC0060E082E1DD
:100520000E94890060E083E10E9489000E946002CD
:10053000D093BA00C093B800DF91CF9108958F9205
:100540009F92AF92BF92CF92DF92EF92FF920F9362
:100550001F93CF93DF93D0918C02D13208F0D7C094
:10056000182FC0918B020E94D5006B017C018091F5
:10057000630281116BC082E0809363021093620278
:100580008FEF8093610210926002D0935F02ABE61E
:10059000B2E0EFE3F2E080E0D81391C010923E02A7
:1005A00080913E02CC0FC82BC0933E0280913D0249
:1005B000813009F088C010923D020E94D5006B0185
:1005C0007C0180913E028093BB00809165029091F6
:1005D0006602A0916702B0916802892B8A2B8B2B4F
:1005E000A1F00E94D5000091650210916602209151
:1005F0006702309168026C197D098E099F09061700
:1006000017072807390708F442C08091BC0083FD12
:10061000D8CF85EC8093BC000E94D5006B017C0193
:1006200080916302823009F450C0809161028F3F53
:1006300009F46FC080916102803209F46CC080912E
:100640006102803309F469C084E026C080916502AC
:1006500090916602A0916702B0916802892B8A2B63
:100660008B2B09F484CF0E94D50080906502909076
:100670006602A0906702B09068026C197D098E092D
:100680009F0986169706A806B90608F070CF8091D4
:1006900064020E947E0285E010926A0210928C022F
:1006A00010926902DF91CF911F910F91FF90EF900F
:1006B000DF90CF90BF90AF909F908F9008959D91C5
:1006C00091938F5F69CF85EEA5CF80916502909160
:1006D0006602A0916702B0916802892B8A2B8B2B4E
:1006E00009F49ECF0E94D500009165021091660228
:1006F00020916702309168026C197D098E099F096B
:10070000061717072807390708F08ACFC0CF81E0FE
:10071000C3CF80E0C1CF82E0BFCF83E0BDCF1F93C6
:10072000CF93DF93EA01122FDC0111968D919C91FA
:10073000DC01ED91FC910280F381E02D0995C81751
:10074000D90729F4812F0E949F0291E0811190E046
:10075000892FDF91CF911F910895CF93DF93EC0103
:100760008B818823A1F0888191E090936902809326
:100770008B0210926A0210928C0281E00E949F020A
:1007800091E0811190E0892FDF91CF91089510922F
:100790001C0210921B0210926A0210928C020E949C
:1007A000600287E890E090931A028093190288E82B
:1007B00090E0909318028093170281E08B83CE0122
:1007C0000E94AD03982F8111CECFDDCF0895E09127
:1007D0001C0280911B02E81730F4F0E0E35EFD4F4D
:1007E000808190E008958FEF9FEF089590911C0213
:1007F00080911B022FEF3FEF981748F4E92FF0E0AC
:10080000E35EFD4F208130E09F5F90931C02C901A1
:10081000089580911B0290911C02891B990B0895E9
:10082000CF92DF92EF92FF920F931F93CF93DF93BC
:100830007C01CB018A0120916902222389F0EB011E
:100840006B01C40ED51ECC15DD0569F06991D70189
:10085000ED91FC910190F081E02DC7010995F3CF56
:10086000642F0E943902C801DF91CF911F910F912F
:10087000FF90EF90DF90CF900895CF93DF931F927A
:10088000CDB7DEB76983209169022223F9F0209168
:100890008C02203258F021E030E0FC0133832283C7
:1008A00090E080E00F90DF91CF91089580916A02EF
:1008B000E82FF0E0E559FD4F998190838F5F809399
:1008C0006A0280938C0281E090E0ECCF61E0CE017F
:1008D00001960E943902F7CF90E080E00895FC0174
:1008E00001900020E9F73197AF01481B590BBC017B
:1008F0008DE892E00C942C018F929F92AF92BF9260
:100900000F931F93CF93DF93CDB7DEB7A1970FB6A9
:10091000F894DEBF0FBECDBF19A2423008F44AE002
:100920008E010F5D1F4F842E912CB12CA12CA5019F
:1009300094010E94A00BE62FB901CA01EA30F4F439
:10094000E05DD801EE938D01232B242B252B79F725
:1009500090E080E0109719F0CD010E946F04A196FD
:100960000FB6F894DEBF0FBECDBFDF91CF911F91C0
:100970000F91BF90AF909F908F900895E95CE1CF69
:10098000CF93DF930E946F04EC018CE291E00E9410
:100990006F048C0F9D1FDF91CF9108950C946F040D
:1009A000CF93DF9300D0CDB7DEB7806889834A83C9
:1009B0008091360390913703FC01248135812230E8
:1009C000310590F0208131E03093690220938B0251
:1009D00010926A0210928C0221E042E050E0BE01C7
:1009E0006F5F7F4F0E948F030F900F90DF91CF9129
:1009F00008952F923F924F925F926F927F928F92C3
:100A00009F92AF92BF92CF92DF92EF92FF920F939D
:100A10001F93CF93DF93DC011496ED91FC91159712
:100A2000EF2B09F425C169012A01EC01888191E0CD
:100A30009093690280938B0210926A0210928C024A
:100A400020E041E050E0CD010E948F03782E882302
:100A500009F40EC1F12CE12C332433948C819D8157
:100A600086010E191F098017910708F48C01288050
:100A70000E94D5004B015C0180916302811173C01B
:100A8000602EB0E2B01710F480E2682E309263025C
:100A900021E0C601801B910BE816F90608F420E05E
:100AA00020936202EFEFE0936102109260028FEFF9
:100AB000860D80935F0230923E0280913E02220CAE
:100AC000282A20923E0280913D02813009F090C098
:100AD00010923D020E94D5004B015C0180913E02C4
:100AE0008093BB008091650290916602A09167029D
:100AF000B0916802892B8A2B8B2BA1F00E94D50024
:100B0000209165023091660240916702509168021F
:100B1000681979098A099B09261737074807590771
:100B200008F442C08091BC0083FDD8CFF5ECF0936F
:100B3000BC000E94D5004B015C01809163028130B2
:100B400009F45AC080916002861510F4609060022A
:100B5000AFE3B2E0EDE1F2E080E0861551F19D9166
:100B600091938F5FFACF8091650290916602A09178
:100B70006702B0916802892B8A2B8B2B09F47CCFFA
:100B80000E94D50020916502309166024091670273
:100B900050916802681979098A099B092617370755
:100BA0004807590708F068CF809164020E947E02CE
:100BB000612C10921C0260921B026016110609F053
:100BC00057C042018E0C9F1C5401C5018819990918
:100BD0008017910798F589819A81DC01ED91FC914C
:100BE0000284F385E02D0995F50181935F01EDCF36
:100BF00085EE8093BC009DCF809165029091660246
:100C0000A0916702B0916802892B8A2B8B2B09F483
:100C100094CF0E94D50020916502309166024091E8
:100C2000670250916802681979098A099B09261799
:100C300037074807590708F080CFB6CFE00EF11EFE
:100C4000EC14FD0408F40ACF872DDF91CF911F919A
:100C50000F91FF90EF90DF90CF90BF90AF909F905B
:100C60008F907F906F905F904F903F902F9008955E
:100C7000712CEACFCF93DF9300D0CDB7DEB71A82C5
:100C800019828068898322E030E0AE014F5F5F4FB8
:100C9000BA0180913603909137030E94F90489814B
:100CA0009A810F900F90DF91CF910895EF92FF926C
:100CB0000F931F93CF93DF931F92CDB7DEB7809131
:100CC000360390913703009711F00E94870C86E05D
:100CD00090E00E94EB0B8C0189E2F80180838AE2AC
:100CE00093E092838183138280E290E095838483F2
:100CF000109337030093360310921C0210921B02CC
:100D000010926A0210928C020E94600287E890E0C2
:100D100090931A028093190288E890E09093180249
:100D20008093170281E0F8018383C8010E94AD031C
:100D3000182F81110AC010E0812F0F90DF91CF9101
:100D40001F910F91FF90EF90089582E9898321E030
:100D500030E0AE014F5F5F4FBA0180913603909152
:100D600037030E94F90489818D3421F0843411F015
:100D7000803109F781E08093380300913B03402FD5
:100D800050E070E060E00E94D00400933B03E090EC
:100D90003903F0903A0380913803811102C00E9418
:100DA0005606A70170E060E08FE00E94D004F09248
:100DB0003A03E092390341E050E060E070E080E007
:100DC0000E94D00463E070E080E090E00E94FA00AE
:100DD00043E050E060E070E080E00E94D004809149
:100DE0003B0320E031E0281B31094CE0429FC00169
:100DF000439F900D112465E070E00E948C0B6F5FA3
:100E00007F4F072E000C880B990B0E94FA0094CF9D
:100E100085ED8093BC008091650290916602A0915F
:100E20006702B09168020796A11DB11D23E0B69537
:100E3000A795979587952A95D1F72091BC0024FD19
:100E400003C01092630208954091650250916602BA
:100E50006091670270916802452B462B472B69F31E
:100E60000097A105B10541F025E32A95F1F70000AF
:100E70000197A109B109E1CF809164020C947E022F
:100E80001F920F920FB60F9211242F933F938F93BF
:100E90009F93AF93BF9380910F0290911002A09106
:100EA0001102B091120230910E0223E0230F2D3770
:100EB00058F50196A11DB11D20930E0280930F02DB
:100EC00090931002A0931102B0931202809113022A
:100ED00090911402A0911502B09116020196A11DE5
:100EE000B11D8093130290931402A0931502B09346
:100EF0001602BF91AF919F918F913F912F910F90CB
:100F00000FBE0F901F90189526E8230F0296A11D83
:100F1000B11DD2CF1F920F920FB60F9211242F93B3
:100F20003F934F935F936F937F938F939F93AF9371
:100F3000BF93EF93FF938DE892E00E94AA01FF9187
:100F4000EF91BF91AF919F918F917F916F915F9141
:100F50004F913F912F910F900FBE0F901F901895BA
:100F60001F920F920FB60F9211242F938F939F937E
:100F7000EF93FF93E0919D02F0919E028081E091BA
:100F8000A302F091A40282FD1BC090818091A60271
:100F90008F5F8F732091A702821741F0E091A60224
:100FA000F0E0E357FD4F958F8093A602FF91EF91FC
:100FB0009F918F912F910F900FBE0F901F901895BA
:100FC0008081F4CF1F920F920FB60F9211242F93AE
:100FD0003F934F935F936F937F938F939F93AF93C1
:100FE000BF93EF93FF938091B900887F803609F417
:100FF0004AC0F0F5883209F4A7C018F5803109F429
:101000009BC0B8F4882309F4F9C0883009F494C06F
:10101000FF91EF91BF91AF919F918F917F916F91D0
:101020005F914F913F912F910F900FBE0F901F90A6
:101030001895883109F488C0803251F78093610295
:1010400014C0803409F49DC040F48033B9F3883370
:10105000F9F68093610285ECB0C0803509F485C053
:10106000883509F496C0883499F60E940807D0CFD5
:10107000883909F48CC038F5883729F050F488365F
:1010800011F0803729F683E0809363021092FD010E
:1010900057C0883809F47BC0803919F0803809F0CE
:1010A000B7CF8091FD01803208F071C0E091FD0161
:1010B00081E08E0F8093FD018091BB00F0E0E35250
:1010C000FE4F80833DC0803B39F0E0F4803A09F464
:1010D00079C0883A09F09CCF84E080936302109233
:1010E000DC011092DB01E0911902F0911A020995DE
:1010F0008091DB0181110FC081E08093DB011092B0
:10110000BB0109C0803C09F4A6CF883C09F4A3CFF9
:10111000883B09F07DCFE091DC0181E08E0F809368
:10112000DC01F0E0E554FE4F80818093BB0090919C
:10113000DC018091DB0129C080913E028093BB00DD
:1011400085EC8093BC0064CF9091600280915F0237
:10115000981758F5E091600281E08E0F809360024D
:10116000F0E0E15CFD4F8081E9CFE091600281E039
:101170008E0F809360028091BB00F0E0E15CFD4F38
:1011800080839091600280915F029817C8F285E891
:10119000D8CFE091600281E08E0F80936002809151
:1011A000BB00F0E0E15CFD4F808380916202811121
:1011B0005CCF81E080933D0284EA8093BC00109272
:1011C000630226CF85EC8093BC001092630280916D
:1011D000FD01803230F4E091FD01F0E0E352FE4F7A
:1011E00010826091FD0170E0E0911702F091180209
:1011F0008DED91E009951092FD010ACF10926102E8
:1012000034CFEDE8F2E01382128288EE93E0A0E0A2
:10121000B0E084839583A683B7832CE031E03183EB
:10122000208325EC30E03587248724EC30E03787B5
:10123000268720EC30E0318B208B21EC30E0338BA3
:10124000228B22EC30E0358B248B26EC30E0378B80
:10125000268B118E128E138E148EEAE2F3E0138227
:10126000128284839583A683B7838EE191E0918374
:101270008083E6E3F3E011821082128286EF858399
:1012800083E090E0948383830895789484B58260AA
:1012900084BD84B5816084BD85B5826085BD85B51A
:1012A000816085BD80916E00816080936E00109298
:1012B0008100809181008260809381008091810013
:1012C00081608093810080918000816080938000A4
:1012D0008091B10084608093B1008091B000816002
:1012E0008093B00080917A00846080937A0080912E
:1012F0007A00826080937A0080917A008160809386
:101300007A0080917A00806880937A001092C10000
:10131000E0919D02F0919E0282E08083E09199022B
:10132000F0919A021082E0919B02F0919C028FEC66
:1013300080831092A502E091A102F091A20286E0C2
:101340008083E0919F02F091A00280818061808380
:10135000E0919F02F091A002808188608083E091FB
:101360009F02F091A002808180688083E0919F02BB
:10137000F091A00280818F7D8083EDE9F0E02491DF
:10138000E9E8F0E08491882399F090E0880F991FB4
:10139000FC01E859FF4FA591B491FC01EE58FF4FB5
:1013A000859194918FB7F894EC91E22BEC938FBFD9
:1013B0000E945606882309F4EBC08FE291E00E9458
:1013C000C004612C7724739464E1862E912CA12CA7
:1013D000B12C80913803811102C00E94560684E12D
:1013E0000E943A068C0186E10E943A066C0188E16F
:1013F0000E943A06EC018AE10E943A067C01809143
:101400003B039301281B31094CE0429FC001439FDD
:10141000900D112465E070E00E948C0B6F5F7F4F90
:10142000072E000C880B990B0E94FA00011511057C
:1014300009F4B9C080913B039301281B3109C9010C
:10144000203431050CF0A9C0982F8827990F990FE7
:101450009C013695279536952795821B930B081787
:10146000190708F0A0C0CC0DDD1DCE0DDF1D0C1737
:101470001D0708F095C0C01BD10BD695C795160166
:101480002C1A3D0A89F097012C1B3D0BA2EEBEE001
:101490000E94C20B910150E040E00E94A00B190194
:1014A00081E9281A8AEF380A89E691E00E94CE0481
:1014B000512C412C4AE0C201B1010E947C0486E714
:1014C00091E00E94CE048CE791E00E94CE04B80126
:1014D00090E080E04AE00E947C0480E891E00E9475
:1014E000CE048AE791E00E94C004809100019091AF
:1014F0000101892B09F45AC080910A0290910B02D4
:10150000A0910C02B0910D02820D931DA41DB51D7A
:1015100080930A0290930B02A0930C02B0930D02E9
:101520008091060290910702A0910802B0910902F1
:101530008C0D9D1DA11DB11D809306029093070285
:10154000A0930802B093090264EF71E080E090E09C
:101550000E94FA0086E891E00E94CE048AE791E0BA
:101560000E94CE0480910001909101010197909317
:1015700001018093000180E090E0892B09F429CFDC
:101580000E949601882309F424CF0E94000021CFF5
:101590008CE391E00E94C004FFCF8FEF9FEF5FCFFD
:1015A000D0E0C0E06CCF312C212C7ECF80910202A4
:1015B00090910302A0910402B0910502892B8A2B1D
:1015C0008B2B09F05CC060910A0270910B02809134
:1015D0000C0290910D02A50194010E94A00B209392
:1015E000020230930302409304025093050260917B
:1015F0000602709107028091080290910902A501EC
:1016000094010E94A00B2093FE013093FF014093B0
:1016100000025093010286E991E00E94CE0460919D
:1016200002027091030280910402909105024AE047
:101630000E947C048AE791E00E94C0048EE991E058
:101640000E94CE046091FE017091FF018091000222
:10165000909101024AE00E947C048AE791E00E9496
:10166000C00461E08DE00E94890060EA7FE080E0D4
:1016700090E00E94FA0060E08DE00E948900C09036
:101680000202D0900302E0900402F0900502C2181A
:10169000D308E408F508F7FE08C0F094E094D0946D
:1016A000C094C11CD11CE11CF11C91EAC91696E83A
:1016B000D90691E0E906F1041CF0C12CD12C760189
:1016C00086EA91E00E94CE044AE0C701B6010E947A
:1016D0007C048AE791E00E94C00429E5C21622E05A
:1016E000D206E104F1040CF446CF8FEA91E00E94A7
:1016F000CE048AE791E00E94C00461E08DE00E9480
:10170000890068EE73E080E090E00E94FA0060E0FB
:101710008DE00E9489002FCF97FB072E16F40094CE
:1017200007D077FD09D00E94D10B07FC05D03EF40D
:10173000909581959F4F0895709561957F4F08957D
:10174000A1E21A2EAA1BBB1BFD010DC0AA1FBB1FC5
:10175000EE1FFF1FA217B307E407F50720F0A21B37
:10176000B30BE40BF50B661F771F881F991F1A94A4
:1017700069F760957095809590959B01AC01BD01CE
:10178000CF010895A29FB001B39FC001A39F700D28
:10179000811D1124911DB29F700D811D1124911D79
:1017A0000895AA1BBB1B51E107C0AA1FBB1FA617A8
:1017B000B70710F0A61BB70B881F991F5A95A9F7FA
:1017C00080959095BC01CD010895EE0FFF1F059007
:1017D000F491E02D09940F931F93CF93DF93823000
:1017E000910510F482E090E0E0913E03F0913F0318
:1017F00030E020E0B0E0A0E0309799F42115310509
:1018000009F44AC0281B390B24303105D8F58A81E8
:101810009B816115710589F1FB0193838283FE0130
:1018200011C0408151810281138148175907E0F0AE
:101830004817590799F4109761F012960C93129774
:1018400013961C933296CF01DF91CF911F910F9188
:10185000089500933E0310933F03F4CF2115310503
:1018600051F04217530738F0A901DB019A01BD017D
:10187000DF01F801C1CFEF01F9CF90933F038093CF
:101880003E03CDCFFE01E20FF31F819391932250CF
:10189000310939832883D7CF20913C0330913D0310
:1018A000232B41F4209104013091050130933D0335
:1018B00020933C0320910201309103012115310551
:1018C00041F42DB73EB74091060150910701241B0A
:1018D000350BE0913C03F0913D03E217F307A0F4D0
:1018E0002E1B3F0B2817390778F0AC014E5F5F4F76
:1018F0002417350748F04E0F5F1F50933D03409368
:101900003C03819391939FCFF0E0E0E09CCFCF9395
:10191000DF930097E9F0FC01329713821282A091C5
:101920003E03B0913F03ED0130E020E01097A1F4B9
:1019300020813181820F931F20913C0330913D0320
:101940002817390709F061C0F0933D03E0933C0389
:10195000DF91CF910895EA01CE17DF07E8F54A81BC
:101960005B819E0141155105B1F7E901FB83EA83D3
:1019700049915991C40FD51FEC17FD0761F480817F
:1019800091810296840F951FE90199838883828152
:1019900093819B838A83F0E0E0E012968D919C9185
:1019A00013970097B9F52D913C911197CD010296AF
:1019B000820F931F20913C0330913D032817390774
:1019C00039F6309751F510923F0310923E03B093D1
:1019D0003D03A0933C03BCCFD383C283408151819C
:1019E000840F951FC817D90761F44E5F5F4F888138
:1019F0009981480F591F518340838A819B8193832A
:101A000082832115310509F0B0CFF0933F03E093B5
:101A10003E039ECFFD01DC01C0CF13821282D7CFDF
:041A2000F894FFCF68
:101A2400140000004003800000000000CC012C01E1
:101A3400590119028A0168017C01000000003D047B
:101A440010046C04E6030904F603E7030D0A0046D8
:101A54006F756E642073656E736F72004E6F2054E1
:101A64004353333437323520666F756E64202E2E1F
:101A74002E20636865636B20796F757220636F6EC7
:101A84006E656374696F6E7300436F6C6F7220547C
:101A9400656D703A2000204B202D2000433A200031
:101AA4002063202D200043616C6962726174696E49
:101AB400672E2E2E2000415647204B3A20004156D7
:101AC4004720523A200044494646204B3A200046DB
:0A1AD4004C415348204C45440000EB
:00000001FF
