:100000000C945D000C9485000C9485000C94850084
:100010000C9485000C9485000C9485000C9485004C
:100020000C9485000C9485000C9485000C9485003C
:100030000C9485000C9485000C9485000C9485002C
:100040000C9446070C9485000C94B6070C9490070A
:100050000C9485000C9485000C9485000C9485000C
:100060000C94E8070C948500000000002400270091
:100070002A0000000000250028002B0004040404CE
:100080000404040402020202020203030303030342
:10009000010204081020408001020408102001021F
:1000A00004081020000000080002010000030407FB
:1000B0000000000000000000070911241FBECFEF60
:1000C000D8E0DEBFCDBF11E0A0E0B1E0ECE6FEE19C
:1000D00002C005900D92A63CB107D9F723E0A6EC2B
:1000E000B1E001C01D92AC34B207E1F710E0CDE5FC
:1000F000D0E004C02197FE010E94720CCC35D107DC
:10010000C9F70E9449090C94340F0C94000008951B
:10011000089590E0FC01EC55FF4F2491FC01E0575D
:10012000FF4F3491FC01E458FF4FE491EE23C9F0F6
:10013000222339F0233001F1A8F4213019F12230C3
:1001400029F1F0E0EE0FFF1FEE58FF4FA591B4919B
:100150008FB7F894EC91611126C030953E233C9303
:100160008FBF08952730A9F02830C9F0243049F70F
:10017000809180008F7D03C0809180008F77809375
:100180008000DFCF84B58F7784BDDBCF84B58F7DD2
:10019000FBCF8091B0008F778093B000D2CF809159
:1001A000B0008F7DF9CF3E2BDACF3FB7F894809126
:1001B0001F0290912002A0912102B091220226B547
:1001C000A89B05C02F3F19F00196A11DB11D3FBF8F
:1001D000BA2FA92F982F8827BC01CD01620F711D5E
:1001E000811D911D42E0660F771F881F991F4A9558
:1001F000D1F708958F929F92AF92BF92CF92DF92E4
:10020000EF92FF924B015C010E94D5006B017C01D3
:100210000E94D5006C197D098E099F09683E7340C4
:1002200081059105A8F321E0821A9108A108B1087F
:1002300088EEC80E83E0D81EE11CF11C81149104E5
:10024000A104B10429F7FF90EF90DF90CF90BF9009
:10025000AF909F908F900895AF92BF92CF92DF9210
:10026000EF92FF920F931F93CF93DF936C017B016B
:100270008B01040F151FEB015E01AE18BF08C017FC
:10028000D10759F06991D601ED91FC910190F0816F
:10029000E02DC6010995892B79F7C501DF91CF9132
:1002A0001F910F91FF90EF90DF90CF90BF90AF9094
:1002B0000895FC01538D448D252F30E0842F90E06C
:1002C000821B930B541710F0CF9608950197089551
:1002D000FC01918D828D981761F0A28DAE0FBF2F1A
:1002E000B11D5D968C91928D9F5F9F73928F90E070
:1002F00008958FEF9FEF0895FC01918D828D9817DF
:1003000031F0828DE80FF11D858D90E008958FEF1B
:100310009FEF0895FC01918D228D892F90E0805CE4
:100320009F4F821B91098F739927089589E992E065
:100330000E948A0121E0892B09F420E0822F089590
:1003400080E090E0892B29F00E94960181110C94A5
:1003500000000895FC01A48DA80FB92FB11DA35A68
:10036000BF4F2C91848D90E001968F739927848FD5
:10037000A689B7892C93A089B1898C9183708064F8
:100380008C93938D848D981306C00288F389E02D99
:1003900080818F7D80830895EF92FF920F931F934A
:1003A000CF93DF93EC0181E0888F9B8D8C8D981328
:1003B0001AC0E889F989808185FF15C09FB7F89434
:1003C000EE89FF896083E889F98980818370806480
:1003D00080839FBF81E090E0DF91CF911F910F91CB
:1003E000FF90EF900895F62E0B8D10E00F5F1F4FDA
:1003F0000F731127E02E8C8D8E110CC00FB607FCE9
:10040000FACFE889F989808185FFF5CFCE010E9476
:10041000AA01F1CFEB8DEC0FFD2FF11DE35AFF4F39
:10042000F0829FB7F8940B8FEA89FB898081806204
:10043000CFCFCF93DF93EC01888D8823B9F0AA89C1
:10044000BB89E889F9898C9185FD03C0808186FD8F
:100450000DC00FB607FCF7CF8C9185FFF2CF8081DE
:1004600085FFEDCFCE010E94AA01E9CFDF91CF91A8
:1004700008952091E701260F3327331F21323105DC
:10048000ECF420916F02FC0190E080E0243069F0F0
:1004900082E00895A091E7012191AC0149535E4F9C
:1004A000A40FB52FB11D2C930196861798F3809158
:1004B000E701680F6093E70180E0089581E0089507
:1004C00010926F0281E080936E021092490261E007
:1004D00082E10E94890061E083E10E948900E9EBEA
:1004E000F0E080818E7F808380818D7F808388E4AF
:1004F0008093B80085E48093BC000895CF93DF9388
:1005000091E09093C6018823B9F0C091B800D091D2
:10051000BA008091BC008A7B8093BC0060E082E1DD
:100520000E94890060E083E10E9489000E946002CD
:10053000D093BA00C093B800DF91CF9108958F9205
:100540009F92AF92BF92CF92DF92EF92FF920F9362
:100550001F93CF93DF93D0919802D13208F0D7C088
:10056000182FC09197020E94D5006B017C018091E9
:100570006F0281116BC082E080936F0210936E0254
:100580008FEF80936D0210926C02D0936B02A7E7FD
:10059000B2E0EBE4F2E080E0D81391C010924A029E
:1005A00080914A02CC0FC82BC0934A028091490225
:1005B000813009F088C0109249020E94D5006B0179
:1005C0007C0180914A028093BB00809171029091DE
:1005D0007202A0917302B0917402892B8A2B8B2B2B
:1005E000A1F00E94D5000091710210917202209139
:1005F0007302309174026C197D098E099F090617E8
:1006000017072807390708F442C08091BC0083FD12
:10061000D8CF85EC8093BC000E94D5006B017C0193
:1006200080916F02823009F450C080916D028F3F3B
:1006300009F46FC080916D02803209F46CC0809122
:100640006D02803309F469C084E026C08091710294
:1006500090917202A0917302B0917402892B8A2B3F
:100660008B2B09F484CF0E94D5008090710290906A
:100670007202A0907302B09074026C197D098E0909
:100680009F0986169706A806B90608F070CF8091D4
:1006900070020E947E0285E010927602109298020B
:1006A00010927502DF91CF911F910F91FF90EF9003
:1006B000DF90CF90BF90AF909F908F9008959D91C5
:1006C00091938F5F69CF85EEA5CF80917102909154
:1006D0007202A0917302B0917402892B8A2B8B2B2A
:1006E00009F49ECF0E94D500009171021091720210
:1006F00020917302309174026C197D098E099F0953
:10070000061717072807390708F08ACFC0CF81E0FE
:10071000C3CF80E0C1CF82E0BFCF83E0BDCF1F93C6
:10072000CF93DF93EA01122FDC0111968D919C91FA
:10073000DC01ED91FC910280F381E02D0995C81751
:10074000D90729F4812F0E949F0291E0811190E046
:10075000892FDF91CF911F910895CF93DF93EC0103
:100760008B818823A1F0888191E09093750280931A
:100770009702109276021092980281E00E949F02E6
:1007800091E0811190E0892FDF91CF91089510922F
:1007900028021092270210927602109298020E946C
:1007A000600287E890E0909326028093250288E813
:1007B00090E0909324028093230281E08B83CE010A
:1007C0000E94AD03982F8111CECFDDCF0895E09127
:1007D000280280912702E81730F4F0E0E75DFD4F32
:1007E000808190E008958FEF9FEF08959091280207
:1007F000809127022FEF3FEF981748F4E92FF0E0A0
:10080000E75DFD4F208130E09F5F90932802C90192
:1008100008958091270290912802891B990B0895D1
:10082000CF92DF92EF92FF920F931F93CF93DF93BC
:100830007C01CB018A0120917502222389F0EB0112
:100840006B01C40ED51ECC15DD0569F06991D70189
:10085000ED91FC910190F081E02DC7010995F3CF56
:10086000642F0E943902C801DF91CF911F910F912F
:10087000FF90EF90DF90CF900895CF93DF931F927A
:10088000CDB7DEB76983209175022223F9F020915C
:100890009802203258F021E030E0FC0133832283BB
:1008A00090E080E00F90DF91CF91089580917602E3
:1008B000E82FF0E0E958FD4F998190838F5F809396
:1008C00076028093980281E090E0ECCF61E0CE0167
:1008D00001960E943902F7CF90E080E00895FC0174
:1008E00001900020E9F73197AF01481B590BBC017B
:1008F00089E992E00C942C018F929F92AF92BF9263
:100900000F931F93CF93DF93CDB7DEB7A1970FB6A9
:10091000F894DEBF0FBECDBF19A2423008F44AE002
:100920008E010F5D1F4F842E912CB12CA12CA5019F
:1009300094010E942D0CE62FB901CA01EA30F4F4AB
:10094000E05DD801EE938D01232B242B252B79F725
:1009500090E080E0109719F0CD010E946F04A196FD
:100960000FB6F894DEBF0FBECDBFDF91CF911F91C0
:100970000F91BF90AF909F908F900895E95CE1CF69
:10098000CF93DF930E946F04EC018CE291E00E9410
:100990006F048C0F9D1FDF91CF9108950C946F040D
:1009A000CF93DF9300D0CDB7DEB7806889834A83C9
:1009B0008091420390914303FC01248135812230D0
:1009C000310590F0208131E0309375022093970239
:1009D000109276021092980221E042E050E0BE01AF
:1009E0006F5F7F4F0E948F030F900F90DF91CF9129
:1009F00008952F923F924F925F926F927F928F92C3
:100A00009F92AF92BF92CF92DF92EF92FF920F939D
:100A10001F93CF93DF93DC011496ED91FC91159712
:100A2000EF2B09F425C169012A01EC01888191E0CD
:100A3000909375028093970210927602109298021A
:100A400020E041E050E0CD010E948F03782E882302
:100A500009F40EC1F12CE12C332433948C819D8157
:100A600086010E191F098017910708F48C01288050
:100A70000E94D5004B015C0180916F02811173C00F
:100A8000602EB0E2B01710F480E2682E30926F0250
:100A900021E0C601801B910BE816F90608F420E05E
:100AA00020936E02EFEFE0936D0210926C028FEFD5
:100AB000860D80936B0230924A0280914A02220C8A
:100AC000282A20924A0280914902813009F090C080
:100AD000109249020E94D5004B015C0180914A02AC
:100AE0008093BB008091710290917202A091730279
:100AF000B0917402892B8A2B8B2BA1F00E94D50018
:100B000020917102309172024091730250917402EF
:100B1000681979098A099B09261737074807590771
:100B200008F442C08091BC0083FDD8CFF5ECF0936F
:100B3000BC000E94D5004B015C0180916F028130A6
:100B400009F45AC080916C02861510F460906C0212
:100B5000ABE4B2E0E9E2F2E080E0861551F19D916C
:100B600091938F5FFACF8091710290917202A09160
:100B70007302B0917402892B8A2B8B2B09F47CCFE2
:100B80000E94D5002091710230917202409173024F
:100B900050917402681979098A099B092617370749
:100BA0004807590708F068CF809170020E947E02C2
:100BB000612C10922802609227026016110609F03B
:100BC00057C042018E0C9F1C5401C5018819990918
:100BD0008017910798F589819A81DC01ED91FC914C
:100BE0000284F385E02D0995F50181935F01EDCF36
:100BF00085EE8093BC009DCF80917102909172022E
:100C0000A0917302B0917402892B8A2B8B2B09F46B
:100C100094CF0E94D50020917102309172024091D0
:100C2000730250917402681979098A099B09261781
:100C300037074807590708F080CFB6CFE00EF11EFE
:100C4000EC14FD0408F40ACF872DDF91CF911F919A
:100C50000F91FF90EF90DF90CF90BF90AF909F905B
:100C60008F907F906F905F904F903F902F9008955E
:100C7000712CEACFCF93DF9300D0CDB7DEB71A82C5
:100C800019828068898322E030E0AE014F5F5F4FB8
:100C9000BA0180914203909143030E94F904898133
:100CA0009A810F900F90DF91CF910895BC0190E051
:100CB00080E04AE00C947C04EF92FF920F931F9324
:100CC000CF93DF931F92CDB7DEB78091420390910F
:100CD0004303009711F00E94AB0E86E090E00E9463
:100CE0000F0E8C0189E2F801808386E393E0928302
:100CF0008183138280E290E0958384831093430381
:100D0000009342031092280210922702109276025A
:100D1000109298020E94600287E890E09093260269
:100D20008093250288E890E0909324028093230228
:100D300081E0F8018383C8010E94AD03182F81115F
:100D40000AC010E0812F0F90DF91CF911F910F917A
:100D5000FF90EF90089582E9898321E030E0AE01B1
:100D60004F5F5F4FBA0180914203909143030E940D
:100D7000F90489818D3421F0843411F0803109F730
:100D800081E08093440300914703402F50E070E0DE
:100D900060E00E94D00400934703E0904503F09088
:100DA000460380914403811102C00E945C06A701A2
:100DB00070E060E08FE00E94D004F0924603E09281
:100DC000450341E050E060E070E080E00E94D00424
:100DD00063E070E080E090E00E94FA0043E050E0C1
:100DE00060E070E080E00E94D0048091470320E042
:100DF00031E0281B31094CE0429FC001439F900D18
:100E0000112465E070E00E94190C6F5F7F4F072E80
:100E1000000C880B990B0E94FA0094CF85ED80930B
:100E2000BC008091710290917202A0917302B09106
:100E300074020796A11DB11D23E0B695A79597955D
:100E400087952A95D1F72091BC0024FD03C010920C
:100E50006F02089540917102509172026091730285
:100E600070917402452B462B472B69F30097A1051F
:100E7000B10541F025E32A95F1F700000197A1099A
:100E8000B109E1CF809170020C947E021F920F9203
:100E90000FB60F9211242F933F938F939F93AF938D
:100EA000BF9380911B0290911C02A0911D02B091F2
:100EB0001E0230911A0223E0230F2D3758F50196B8
:100EC000A11DB11D20931A0280931B0290931C0256
:100ED000A0931D02B0931E0280911F0290912002E8
:100EE000A0912102B09122020196A11DB11D809313
:100EF0001F0290932002A0932102B0932202BF917F
:100F0000AF919F918F913F912F910F900FBE0F90B6
:100F10001F90189526E8230F0296A11DB11DD2CF70
:100F20001F920F920FB60F9211242F933F934F935E
:100F30005F936F937F938F939F93AF93BF93EF9341
:100F4000FF9389E992E00E94AA01FF91EF91BF917E
:100F5000AF919F918F917F916F915F914F913F9151
:100F60002F910F900FBE0F901F9018951F920F9208
:100F70000FB60F9211242F938F939F93EF93FF93AC
:100F8000E091A902F091AA028081E091AF02F09174
:100F9000B00282FD1BC090818091B2028F5F8F737F
:100FA0002091B302821741F0E091B202F0E0E756DF
:100FB000FD4F958F8093B202FF91EF919F918F919A
:100FC0002F910F900FBE0F901F9018958081F4CF36
:100FD0001F920F920FB60F9211242F933F934F93AE
:100FE0005F936F937F938F939F93AF93BF93EF9391
:100FF000FF938091B900887F803609F44AC0F0F5EC
:10100000883209F4A7C018F5803109F49BC0B8F400
:10101000882309F4F9C0883009F494C0FF91EF9156
:10102000BF91AF919F918F917F916F915F914F9100
:101030003F912F910F900FBE0F901F901895883100
:1010400009F488C0803251F780936D0214C0803457
:1010500009F49DC040F48033B9F38833F9F68093E6
:101060006D0285ECB0C0803509F485C0883509F47F
:1010700096C0883499F60E940E07D0CF883909F4BB
:101080008CC038F5883729F050F4883611F0803755
:1010900029F683E080936F021092090257C08838C6
:1010A00009F47BC0803919F0803809F0B7CF8091FE
:1010B0000902803208F071C0E091090281E08E0FD0
:1010C000809309028091BB00F0E0E751FE4F8083DE
:1010D0003DC0803B39F0E0F4803A09F479C0883AA9
:1010E00009F09CCF84E080936F021092E801109287
:1010F000E701E0912502F091260209958091E70130
:1011000081110FC081E08093E7011092C70109C0EF
:10111000803C09F4A6CF883C09F4A3CF883B09F0B2
:101120007DCFE091E80181E08E0F8093E801F0E04F
:10113000E953FE4F80818093BB009091E80180913C
:10114000E70129C080914A028093BB0085EC80931F
:10115000BC0064CF90916C0280916B02981758F597
:10116000E0916C0281E08E0F80936C02F0E0E55B11
:10117000FD4F8081E9CFE0916C0281E08E0F80937A
:101180006C028091BB00F0E0E55BFD4F80839091A5
:101190006C0280916B029817C8F285E8D8CFE09175
:1011A0006C0281E08E0F80936C028091BB00F0E0B6
:1011B000E55BFD4F808380916E0281115CCF81E001
:1011C0008093490284EA8093BC0010926F0226CF7C
:1011D00085EC8093BC0010926F02809109028032EE
:1011E00030F4E0910902F0E0E751FE4F1082609187
:1011F000090270E0E0912302F091240289EE91E06F
:101200000995109209020ACF10926D0234CFE9E9D4
:10121000F2E01382128288EE93E0A0E0B0E08483D3
:101220009583A683B7832CE031E03183208325ECBE
:1012300030E03587248724EC30E03787268720ECA0
:1012400030E0318B208B21EC30E0338B228B22EC91
:1012500030E0358B248B26EC30E0378B268B118EDB
:10126000128E138E148EE6E3F3E0138212828483CF
:101270009583A683B7838EE191E091838083E2E436
:10128000F3E011821082128286EF8583148213822A
:101290000895789484B5826084BD84B5816084BDEE
:1012A00085B5826085BD85B5816085BD80916E0004
:1012B000816080936E001092810080918100826035
:1012C0008093810080918100816080938100809172
:1012D00080008160809380008091B1008460809361
:1012E000B1008091B00081608093B00080917A005D
:1012F000846080937A0080917A00826080937A0083
:1013000080917A00816080937A0080917A00806871
:1013100080937A001092C100E091A902F091AA0294
:1013200082E08083E091A502F091A6021082E09114
:10133000A702F091A8028FEC80831092B102E09195
:10134000AD02F091AE0286E08083E091AB02F091B5
:10135000AC02808180618083E091AB02F091AC02AD
:10136000808188608083E091AB02F091AC02808143
:1013700080688083E091AB02F091AC0280818F7D28
:101380008083EDE9F0E02491E9E8F0E0849188239E
:1013900099F090E0880F991FFC01E859FF4FA59143
:1013A000B491FC01EE58FF4F859194918FB7F8945A
:1013B000EC91E22BEC938FBF0E945C06882309F42A
:1013C0005FC18FE291E00E94C004809144038111CB
:1013D00002C00E945C0684E10E943A068C0186E10C
:1013E0000E943A066C0188E10E943A061C018AE1DB
:1013F0000E943A067C018091470320E031E0281BDF
:1014000031094CE0429FC001439F900D112465E0DB
:1014100070E00E94190C6F5F7F4F072E000C880B45
:10142000990B0E94FA000115110509F434C180914D
:10143000470320E031E0281B3109C9012034310580
:101440000CF023C1982F8827990F990F9C0136958E
:10145000279536952795821B930B0817190708F0D7
:101460001AC1C601820D931D8E0D9F1D0817190705
:1014700008F00EC1801B910B96958795E601C81B5D
:10148000D90B79F09701281B390BA2EEBEE00E9420
:101490004F0C9E0150E040E00E942D0CE901C15923
:1014A000DA4F89E691E00E94CE04CE010E945606F2
:1014B00086E791E00E94CE048CE791E00E94CE0482
:1014C0002601712C612CC301B6010E94140D26ED7A
:1014D00039E346EA5EEB0E94A20D4B015C01B101CB
:1014E00090E080E00E94140D27E038E04AEC5FE3D2
:1014F0000E94A20D9B01AC01C501B4010E94790CB0
:101500004B015C01B70190E080E00E94140D24E7DC
:101510003EE54BE35FEB0E94A20D9B01AC01C501D0
:10152000B4010E94790C0E94E50CCB010E94560682
:1015300088E791E00E94CE048EEA91E00E94CE04FA
:10154000C6010E9456068AE791E00E94CE0482E816
:1015500091E00E94CE04C1010E9456068AE791E004
:101560000E94CE0486E891E00E94CE04C7010E944A
:1015700056068AE791E00E94CE048AE891E00E9434
:10158000CE04C8010E9456068AE791E00E94CE046C
:101590008AE791E00E94C0046E01F12CE12C809159
:1015A000000190910101892B09F478C08091160205
:1015B00090911702A0911802B09119028C0D9D1DF7
:1015C000AE1DBF1D8093160290931702A0931802C0
:1015D000B09319028091120290911302A09114020B
:1015E000B0911502840D951DA61DB71D80931202A2
:1015F00090931302A0931402B093150264EF71E06C
:1016000080E090E00E94FA008EE891E00E94CE0413
:101610006091160270911702809118029091190240
:101620004AE00E947C048AE791E00E94CE0488E9A7
:1016300091E00E94CE046091120270911302809199
:101640001402909115024AE00E947C048AE791E01E
:101650000E94CE0480910001909101010197909326
:1016600001018093000180E090E0892B09F4ADCE68
:101670000E949601882309F4A8CE0E940000A5CEFE
:101680008CE391E00E94C004FFCF8FEF9FEFE5CE87
:1016900090E080E0F3CED0E0C0E003CF80910E0276
:1016A00090910F02A0911002B0911102892B8A2B08
:1016B0008B2B61F5609116027091170280911802D0
:1016C0009091190224E130E040E050E00E942D0C9E
:1016D00020930E0230930F02409310025093110298
:1016E0006091120270911302809114029091150280
:1016F00024E130E040E050E00E942D0C20930A02EB
:1017000030930B0240930C0250930D0282EA91E059
:101710000E94CE0460910E0270910F02809110021F
:10172000909111024AE00E947C048AE791E00E94B5
:10173000CE048AEA91E00E94CE0460910A02709180
:101740000B0280910C0290910D024AE00E947C04F1
:101750008AE791E00E94CE0482EB91E00E94CE04E1
:1017600060910E0270910F0280911002909111020F
:101770006C197D098E099F094AE00E947C048AE762
:1017800091E00E94CE0480910E0290910F02A091F0
:101790001002B0911102C816D906EA06FB0609F438
:1017A00044C08C199D09AE09BF096C017D0131EA65
:1017B000C31636E8D30631E0E306F1041CF0C12C71
:1017C000D12C76018BEB91E00E94CE044AE0C70158
:1017D000B601F7FE0DC06DE289E992E00E94CC01EE
:1017E00066277727CB016C197D098E099F094AE08E
:1017F0000E947C048AE791E00E94CE0445EFC41663
:1018000041E0D406E104F1040CF42DCF61E08DE059
:101810000E94890068EE73E080E090E00E94FA0088
:1018200060E08DE00E9489001ECF80E090E0DC0146
:10183000BCCF97FB072E16F4009407D077FD09D094
:101840000E945E0C07FC05D03EF4909581959F4F59
:101850000895709561957F4F0895A1E21A2EAA1BF5
:10186000BB1BFD010DC0AA1FBB1FEE1FFF1FA21750
:10187000B307E407F50720F0A21BB30BE40BF50B4D
:10188000661F771F881F991F1A9469F760957095D6
:10189000809590959B01AC01BD01CF010895A29F59
:1018A000B001B39FC001A39F700D811D1124911D34
:1018B000B29F700D811D1124911D0895AA1BBB1BA1
:1018C00051E107C0AA1FBB1FA617B70710F0A61B40
:1018D000B70B881F991F5A95A9F780959095BC0161
:1018E000CD010895EE0FFF1F0590F491E02D0994AE
:1018F0005058BB27AA270E94900C0C94680D0E9498
:101900005A0D38F00E94610D20F039F49F3F19F410
:1019100026F40C94570D0EF4E095E7FB0C94510D52
:10192000E92F0E94790D58F3BA17620773078407ED
:10193000950720F079F4A6F50C949B0D0EF4E09534
:101940000B2EBA2FA02D0B01B90190010C01CA0179
:10195000A0011124FF27591B99F0593F50F4503E24
:1019600068F11A16F040A22F232F342F4427585F16
:10197000F3CF469537952795A795F0405395C9F72E
:101980007EF41F16BA0B620B730B840BBAF09150E6
:10199000A1F0FF0FBB1F661F771F881FC2F70EC085
:1019A000BA0F621F731F841F48F487957795679558
:1019B000B795F7959E3F08F0B0CF9395880F08F044
:1019C0009927EE0F9795879508950E94810D88F0CD
:1019D0009F5798F0B92F9927B751B0F0E1F0660FF3
:1019E000771F881F991F1AF0BA95C9F714C0B13034
:1019F00091F00E949B0DB1E008950C949B0D672F10
:101A0000782F8827B85F39F0B93FCCF38695779562
:101A10006795B395D9F73EF490958095709561954B
:101A20007F4F8F4F9F4F0895E89409C097FB3EF476
:101A300090958095709561957F4F8F4F9F4F99231B
:101A4000A9F0F92F96E9BB279395F6958795779599
:101A50006795B795F111F8CFFAF4BB0F11F460FF59
:101A60001BC06F5F7F4F8F4F9F4F16C0882311F0B1
:101A700096E911C0772321F09EE8872F762F05C0C5
:101A8000662371F096E8862F70E060E02AF09A9560
:101A9000660F771F881FDAF7880F9695879597F955
:101AA000089597F99F6780E870E060E008959FEFE0
:101AB00080EC089500240A941616170618060906E5
:101AC000089500240A9412161306140605060895B4
:101AD000092E0394000C11F4882352F0BB0F40F43C
:101AE000BF2B11F460FF04C06F5F7F4F8F4F9F4F7C
:101AF000089557FD9058440F551F59F05F3F71F0FE
:101B00004795880F97FB991F61F09F3F79F0879564
:101B10000895121613061406551FF2CF4695F1DFED
:101B200008C0161617061806991FF1CF869571057D
:101B3000610508940895E894BB2766277727CB01B1
:101B400097F908950E94B50D0C94680D0E945A0DE6
:101B500038F00E94610D20F0952311F00C94510D86
:101B60000C94570D11240C949C0D0E94790D70F368
:101B7000959FC1F3950F50E0551F629FF001729F32
:101B8000BB27F00DB11D639FAA27F00DB11DAA1F41
:101B9000649F6627B00DA11D661F829F2227B00D8E
:101BA000A11D621F739FB00DA11D621F839FA00D19
:101BB000611D221F749F3327A00D611D231F849F69
:101BC000600D211D822F762F6A2F11249F575040C0
:101BD0009AF0F1F088234AF0EE0FFF1FBB1F661F3B
:101BE000771F881F91505040A9F79E3F510580F004
:101BF0000C94510D0C949C0D5F3FE4F3983ED4F38C
:101C0000869577956795B795F795E7959F5FC1F7A7
:101C1000FE2B880F911D9695879597F908950F9340
:101C20001F93CF93DF938230910510F482E090E010
:101C3000E0914A03F0914B0330E020E0B0E0A0E0F7
:101C4000309799F42115310509F44AC0281B390B46
:101C500024303105D8F58A819B816115710589F1A0
:101C6000FB0193838283FE0111C040815181028177
:101C7000138148175907E0F04817590799F410974E
:101C800061F012960C93129713961C933296CF0123
:101C9000DF91CF911F910F91089500934A03109304
:101CA0004B03F4CF2115310551F04217530738F09B
:101CB000A901DB019A01BD01DF01F801C1CFEF01EC
:101CC000F9CF90934B0380934A03CDCFFE01E20FEF
:101CD000F31F819391932250310939832883D7CF01
:101CE0002091480330914903232B41F420910401B2
:101CF000309105013093490320934803209102015C
:101D0000309103012115310541F42DB73EB74091C3
:101D1000060150910701241B350BE0914803F09117
:101D20004903E217F307A0F42E1B3F0B28173907CE
:101D300078F0AC014E5F5F4F2417350748F04E0F27
:101D40005F1F5093490340934803819391939FCF22
:101D5000F0E0E0E09CCFCF93DF930097E9F0FC0147
:101D6000329713821282A0914A03B0914B03ED0186
:101D700030E020E01097A1F420813181820F931F81
:101D800020914803309149032817390709F061C0B1
:101D9000F0934903E0934803DF91CF910895EA015E
:101DA000CE17DF07E8F54A815B819E014115510599
:101DB000B1F7E901FB83EA8349915991C40FD51F1B
:101DC000EC17FD0761F4808191810296840F951FC5
:101DD000E90199838883828193819B838A83F0E0E0
:101DE000E0E012968D919C9113970097B9F52D9193
:101DF0003C911197CD010296820F931F20914803C9
:101E0000309149032817390739F6309751F5109268
:101E10004B0310924A03B0934903A0934803BCCFED
:101E2000D383C28340815181840F951FC817D9077E
:101E300061F44E5F5F4F88819981480F591F51832C
:101E400040838A819B81938382832115310509F028
:101E5000B0CFF0934B03E0934A039ECFFD01DC012A
:0C1E6000C0CF13821282D7CFF894FFCFBE
:101E6C00140000004C03800000000000CC012C0189
:101E7C00590119028A0168017C01000000003D042F
:101E8C0010046C04E6030904F603E7030D0A00468C
:101E9C006F756E642073656E736F72004E6F205495
:101EAC004353333437323520666F756E64202E2ED3
:101EBC002E20636865636B20796F757220636F6E7B
:101ECC006E656374696F6E7300436F6C6F72205430
:101EDC00656D703A2000204B202D20004C75783A0F
:101EEC002000473A2000423A2000433A2000746F09
:101EFC0074616C5F6B3A2000746F74616C5F723A42
:101F0C002000415647204B3A200041564720523A78
:101F1C00200044494646204B3A200044494646207E
:061F2C004B323A200000D8
:00000001FF
